:020000020000FC
:020000001FC01F
:02000800FBC13A
:0200100004C228
:1000400000E10EBF0FEF0DBF41E000E80ABB00E08A
:1000500007BB0FE004BB00E001BB0AE008BB0CECEF
:1000600000936A000AE009BF7894DF984F934195A6
:10007000405F042F4F918FEF9FEF0197F1F70A95A3
:10008000D1F7DF9A4F934195405F042F4F918FEF47
:0C0090009FEF0197F1F70A95D1F7E7CF39
:100400000F9301E0041708F006C04A95042F0F70FF
:1004100000950F7045BB0F9118954F3008F008C03C
:1004200043950F93042F0F7000950F7045BB0F91EC
:0204300018951D
:00000001FF
